:100000000C9435000C945D000C945D000C945D0024
:100010000C945D000C945D000C945D000C945D00EC
:100020000C945D000C945D000C945D000C945D00DC
:100030000C945D000C945D000C945D000C945D00CC
:100040000C9471010C945D000C94E1010C94BB01C3
:100050000C945D000C945D000C945D000C945D00AC
:100060000C945D000C945D00130211241FBECFEFB1
:10007000D8E0DEBFCDBF22E0A2E1B1E001C01D9219
:10008000AC3BB207E1F711E0A0E0B1E0E0EEF6E052
:1000900002C005900D92A231B107D9F710E0C5E377
:1000A000D0E004C02197FE010E944803C433D10769
:1000B000C9F70E9448020C946E030C940000CF9282
:1000C000DF92EF92FF920F931F93CF93DF936C0118
:1000D0007A018B01C0E0D0E0CE15DF0581F0D801B8
:1000E0006D918D01D601ED91FC910190F081E02D93
:1000F000C6010995892B11F02196EECF7E01C7012B
:10010000DF91CF911F910F91FF90EF90DF90CF90F3
:100110000895089580E090E00895FC01538D448D8A
:10012000252F30E0842F90E0821B930B541710F0A2
:10013000CF96089501970895FC01918D828D9817AF
:1001400061F0828DDF01A80FB11D5D968C91928DBB
:100150009F5F9F73928F90E008958FEF9FEF0895B8
:10016000FC01918D828D981731F0828DE80FF11D81
:10017000858D90E008958FEF9FEF0895FC01918D9C
:10018000228D892F90E0805C9F4F821B91098F7395
:10019000992708958BE191E00E94BE0021E0892B10
:1001A00009F420E0822F0895FC01848DDF01A80F5F
:1001B000B11DA35ABF4F2C91848D90E001968F738F
:1001C0009927848FA689B7892C93A089B1898C91AE
:1001D000837080648C93938D848D981306C00288FD
:1001E000F389E02D80818F7D80830895EF92FF92C7
:1001F0000F931F93CF93DF93EC0181E0888F9B8D4A
:100200008C8D981305C0E889F989808185FD26C009
:10021000F62E0B8D10E00F5F1F4F0F731127E02E8E
:100220008C8DE8120CC00FB607FCFACFE889F9896B
:10023000808185FFF5CFCE010E94D400F1CF8B8D58
:10024000FE01E80FF11DE35AFF4FF0829FB7F894CB
:100250000B8FEA89FB89808180620AC09FB7F8947E
:10026000EE89FF896083E889F989808183708064E1
:1002700080839FBF81E090E0DF91CF911F910F912C
:10028000FF90EF900895CF93DF93EC01888D882342
:10029000C9F0EA89FB89808185FD05C0A889B989F3
:1002A0008C9186FD0FC00FB607FCF5CF808185FFCE
:1002B000F2CFA889B9898C9185FFEDCFCE010E943C
:1002C000D400E7CFDF91CF91089580E090E0892BB3
:1002D00029F00E94CA0081110C94000008950E9428
:1002E0004E031F920F920FB60F9211242F933F933C
:1002F0008F939F93AF93BF938091170190911801B3
:10030000A0911901B0911A013091160123E0230F39
:100310002D3720F40196A11DB11D05C026E8230F3D
:100320000296A11DB11D2093160180931701909391
:100330001801A0931901B0931A01809112019091B4
:100340001301A0911401B09115010196A11DB11DD9
:100350008093120190931301A0931401B09315019F
:10036000BF91AF919F918F913F912F910F900FBEB1
:100370000F901F9018951F920F920FB60F92112495
:100380002F933F934F935F936F937F938F939F939D
:10039000AF93BF93EF93FF938BE191E00E94D40062
:1003A000FF91EF91BF91AF919F918F917F916F914D
:1003B0005F914F913F912F910F900FBE0F901F9023
:1003C00018951F920F920FB60F9211242F938F93AF
:1003D0009F93EF93FF93E0912B01F0912C0180818B
:1003E000E0913101F091320182FD12C09081809143
:1003F00034018F5F8F7320913501821751F0E091A6
:100400003401F0E0E55EFE4F958F8093340101C02A
:100410008081FF91EF919F918F912F910F900FBE4F
:100420000F901F901895EBE1F1E01382128288EE95
:1004300093E0A0E0B0E084839583A683B78384E053
:1004400091E09183808385EC90E09587848784ECAC
:1004500090E09787868780EC90E0918B808B81EC91
:1004600090E0938B828B82EC90E0958B848B86EC72
:1004700090E0978B868B118E128E138E148E1092B5
:10048000B9021092B8021092BB021092BA020895FB
:10049000789484B5826084BD84B5816084BD85B55F
:1004A000826085BD85B5816085BD80916E0081606B
:1004B00080936E0010928100809181008260809311
:1004C0008100809181008160809381008091800013
:1004D0008160809380008091B10084608093B1003E
:1004E0008091B00081608093B00080917A00846038
:1004F00080937A0080917A00826080937A00809164
:100500007A00816080937A0080917A00806880937D
:100510007A001092C100E0912B01F0912C0182E051
:100520008083E0912701F09128011082E091290158
:10053000F0912A018FEC808310923301E0912F011A
:10054000F091300186E08083E0912D01F0912E0141
:10055000808180618083E0912D01F0912E01808166
:1005600088608083E0912D01F0912E018081806868
:100570008083E0912D01F0912E0180818F7D808319
:100580008AE090E0A0E0B0E080931F01909320010A
:10059000A0932101B093220108EB11E080E8F82E2E
:1005A0008BE191E00E94BE00892B31F1C091B8022D
:1005B000D091B9028BE191E00E949C00C85CDD4FB4
:1005C00088838091B8029091B90201969093B90204
:1005D0008093B802E5CF809138028230A9F04FE7CE
:1005E00050E069E372E088E392E00E945C032197A7
:1005F000D093B902C093B802C091B802D091B902A9
:100600001C161D0644F341C0C130D105F1F14091E3
:100610003902042E000C550B5093BB024093BA02D2
:10062000C417D50794F1FA01E95CFD4F808183304E
:10063000B1F6F8018F2D11928A95E9F768E372E01F
:1006400088EB91E00E9453038091B8029091B90227
:100650002091BA023091BB02821B930B9093B90296
:100660008093B802C8EBD1E08091B901082E000C4C
:10067000990B9E01285B31402817390734F46991A2
:100680008BE191E00E94F600EFCF0E94650188CFD8
:10069000EE0FFF1F0590F491E02D099481E090E0AA
:1006A000F8940C946E03FB01DC0102C001900D92E2
:1006B00041505040D8F708956817790768F4FB0156
:1006C000DC01E40FF51FA40FB51F02C002900E92CB
:1006D00041505040D8F708950C945303F894FFCF3D
:1006E00000000000F6005F008D004301BE009C008A
:0206F000B00058
:107E0000112484B714BE81FFF0D085E080938100F7
:107E100082E08093C00088E18093C10086E0809377
:107E2000C20080E18093C4008EE0C9D0259A86E02C
:107E300020E33CEF91E0309385002093840096BBD3
:107E4000B09BFECF1D9AA8958150A9F7CC24DD24C4
:107E500088248394B5E0AB2EA1E19A2EF3E0BF2EE7
:107E6000A2D0813461F49FD0082FAFD0023811F036
:107E7000013811F484E001C083E08DD089C08234E0
:107E800011F484E103C0853419F485E0A6D080C0E4
:107E9000853579F488D0E82EFF2485D0082F10E0AE
:107EA000102F00270E291F29000F111F8ED06801E7
:107EB0006FC0863521F484E090D080E0DECF843638
:107EC00009F040C070D06FD0082F6DD080E0C81688
:107ED00080E7D80618F4F601B7BEE895C0E0D1E017
:107EE00062D089930C17E1F7F0E0CF16F0E7DF06D8
:107EF00018F0F601B7BEE89568D007B600FCFDCFD4
:107F0000A601A0E0B1E02C9130E011968C91119780
:107F100090E0982F8827822B932B1296FA010C0160
:107F200087BEE89511244E5F5F4FF1E0A038BF0790
:107F300051F7F601A7BEE89507B600FCFDCF97BE46
:107F4000E89526C08437B1F42ED02DD0F82E2BD052
:107F50003CD0F601EF2C8F010F5F1F4F84911BD097
:107F6000EA94F801C1F70894C11CD11CFA94CF0C13
:107F7000D11C0EC0853739F428D08EE10CD085E9AC
:107F80000AD08FE07ACF813511F488E018D01DD067
:107F900080E101D065CF982F8091C00085FFFCCF94
:107FA0009093C60008958091C00087FFFCCF809118
:107FB000C00084FD01C0A8958091C6000895E0E648
:107FC000F0E098E1908380830895EDDF803219F02E
:107FD00088E0F5DFFFCF84E1DECF1F93182FE3DFCA
:107FE0001150E9F7F2DF1F91089580E0E8DFEE27F6
:047FF000FF270994CA
:027FFE00040479
:0400000300007E007B
:00000001FF