:100000000C9435000C945D000C945D000C945D0024
:100010000C945D000C945D000C945D000C945D00EC
:100020000C945D000C945D000C945D000C945D00DC
:100030000C945D000C945D000C945D000C945D00CC
:100040000C9475020C945D000C9443020C941D02F8
:100050000C945D000C945D000C945D000C945D00AC
:100060000C945D000C945D00BF0211241FBECFEF05
:10007000D8E0DEBFCDBF23E0AAE3B1E001C01D920E
:10008000AE32B207E1F711E0A0E0B1E0E0E7FBE05B
:1000900002C005900D92AA33B107D9F710E0C5E36D
:1000A000D0E004C02197FE010E949005C433D1071F
:1000B000C9F70E94FE020C94B6050C940000EBE414
:1000C000F2E0A089B18982E08C93A485B5851C9269
:1000D000A685B7858FEC8C93108EA489B58986E0B0
:1000E0008C93A289B3898C9180618C93A289B38906
:1000F0008C9188608C93A289B3898C9180688C9351
:100100000288F389E02D80818F7D80830895CF92CE
:10011000DF92EF92FF920F931F93CF93DF936C01C7
:100120007A018B01C0E0D0E0CE15DF0581F0D80167
:100130006D918D01D601ED91FC910190F081E02D42
:10014000C6010995892B11F02196EECF7E01C701DA
:10015000DF91CF911F910F91FF90EF90DF90CF90A3
:100160000895089580E090E00895FC01538D448D3A
:10017000252F30E0842F90E0821B930B541710F052
:10018000CF96089501970895FC01918D828D98175F
:1001900061F0828DDF01A80FB11D5D968C91928D6B
:1001A0009F5F9F73928F90E008958FEF9FEF089568
:1001B000FC01918D828D981731F0828DE80FF11D31
:1001C000858D90E008958FEF9FEF0895FC01918D4C
:1001D000228D892F90E0805C9F4F821B91098F7345
:1001E000992708958BE492E00E94E60021E0892B94
:1001F00009F420E0822F0895FC01848DDF01A80F0F
:10020000B11DA35ABF4F2C91848D90E001968F733E
:100210009927848FA689B7892C93A089B1898C915D
:10022000837080648C93938D848D981306C00288AC
:10023000F389E02D80818F7D80830895EF92FF9276
:100240000F931F93CF93DF93EC0181E0888F9B8DF9
:100250008C8D981305C0E889F989808185FD26C0B9
:10026000F62E0B8D10E00F5F1F4F0F731127E02E3E
:100270008C8DE8120CC00FB607FCFACFE889F9891B
:10028000808185FFF5CFCE010E94FC00F1CF8B8DE0
:10029000FE01E80FF11DE35AFF4FF0829FB7F8947B
:1002A0000B8FEA89FB89808180620AC09FB7F8942E
:1002B000EE89FF896083E889F98980818370806491
:1002C00080839FBF81E090E0DF91CF911F910F91DC
:1002D000FF90EF900895CF93DF93EC01888D8823F2
:1002E000C9F0EA89FB89808185FD05C0A889B989A3
:1002F0008C9186FD0FC00FB607FCF5CF808185FF7E
:10030000F2CFA889B9898C9185FFEDCFCE010E94EB
:10031000FC00E7CFDF91CF91089580E090E0892B3A
:1003200029F00E94F20081110C94000008953FB75B
:10033000F89480913F0190914001A0914101B091CA
:10034000420126B5A89B05C02F3F19F00196A11DBB
:10035000B11D3FBFBA2FA92F982F8827820F911D5B
:10036000A11DB11DBC01CD0142E0660F771F881FA2
:10037000991F4A95D1F708952FB7F89460913B01E2
:1003800070913C0180913D0190913E012FBF0895F5
:10039000009769F0FC0101900020E9F73197AF0167
:1003A000481B590BBC018BE492E00C94870080E061
:1003B00090E008958F929F92AF92BF920F931F93F8
:1003C000CF93DF93CDB7DEB7A1970FB6F894DEBF1A
:1003D0000FBECDBF19A2423008F44AE08E010F5D76
:1003E0001F4F842E912CA12CB12CA50194010E94A9
:1003F0006E05E62FB901CA0101501109EA3014F463
:10040000E05D01C0E95CD801EC93232B242B252B64
:1004100061F7C8010E94C801A1960FB6F894DEBF2B
:100420000FBECDBFDF91CF911F910F91BF90AF90C5
:100430009F908F9008950E9496051F920F920FB67D
:100440000F9211242F933F934F935F936F937F935A
:100450008F939F93AF93BF93EF93FF938BE492E0BF
:100460000E94FC00FF91EF91BF91AF919F918F91FE
:100470007F916F915F914F913F912F910F900FBEA0
:100480000F901F9018951F920F920FB60F92112484
:100490002F938F939F93EF93FF93E0915B02F091E3
:1004A0005C028081E0916102F091620282FD12C0E3
:1004B0009081809164028F5F8F7320916502821713
:1004C00051F0E0916402F0E0E55BFD4F958F809381
:1004D000640201C08081FF91EF919F918F912F91D4
:1004E0000F900FBE0F901F9018951F920F920FB68E
:1004F0000F9211242F933F938F939F93AF93BF93AA
:1005000080913B0190913C01A0913D01B0913E0151
:1005100030913A0123E0230F2D3720F40196A11DDD
:10052000B11D05C026E8230F0296A11DB11D209321
:100530003A0180933B0190933C01A0933D01B0931D
:100540003E0180913F0190914001A0914101B09105
:1005500042010196A11DB11D80933F01909340017E
:10056000A0934101B0934201BF91AF919F918F91B0
:100570003F912F910F900FBE0F901F901895EBE4B5
:10058000F2E01382128288EE93E0A0E0B0E0848370
:100590009583A683B78384E091E09183808385EC83
:1005A00090E09587848784EC90E09787868780EC3D
:1005B00090E0918B808B81EC90E0938B828B82EC2E
:1005C00090E0958B848B86EC90E0978B868B118ED8
:1005D000128E138E148EE8EEF2E0168217821086C9
:1005E0001186128613861486158616861786108A3B
:1005F000118A128A138A148A158A0895789484B508
:10060000826084BD84B5816084BD85B5826085BD0E
:1006100085B5816085BD80916E00816080936E009C
:10062000109281008091810082608093810080918E
:10063000810081608093810080918000816080933F
:1006400080008091B10084608093B1008091B000FF
:1006500081608093B00080917A00846080937A00FA
:1006600080917A00826080937A0080917A00816024
:1006700080937A0080917A00806880937A0010924B
:10068000C10010922A0310922B0310922C03109297
:100690002D031092EA021092EB021092EC021092DB
:1006A000ED020E94BC016B017C012B013C0128EB97
:1006B000420E2BE0521E611C711C0E94BC016C1585
:1006C0007D058E059F0528F04616570668067906B3
:1006D000A0F70E9497012B013C0128EEC22E23E0D7
:1006E000D22EE12CF12C0E949701DC01CB01841960
:1006F0009509A609B709883E9340A105B10598F36D
:1007000031E0C31AD108E108F10848EE440E43E095
:10071000541E611C711CC114D104E104F10419F7C9
:100720000E945F000E94BC016093EA027093EB029A
:100730008093EC029093ED0282E191E00E94C80167
:100740000E94BC016B017C012B013C018AE0480E38
:10075000511C611C711C0E94BC016C157D058E052D
:100760009F0528F04616570668067906A0F781E02F
:100770008093FE020E945F008AE090E0A0E0B0E07B
:1007800080934F0290935002A0935102B093520273
:1007900080E8E5ECF1E0DF01282F1D922A95E9F7CA
:1007A000E3E4F1E0DF011D928A95E9F784EFC82EBA
:1007B000DD24D394E12CF12C8F0190E8392E0E9496
:1007C000BC01672B682B692B41F40E94BC0162308D
:1007D00071058105910508F4E4C00E94BC014090B8
:1007E0004702509048026090490270904A02641596
:1007F00075058605970540F460934702709348029B
:100800008093490290934A024090470250904802D8
:100810006090490270904A029B01AC01241935098D
:100820004609570929013A013AEF43165104610478
:10083000710408F4B6C06093470270934802809335
:10084000490290934A02C092F602D092F702E092D7
:10085000F802F092F9021092FA021092FB02109242
:10086000FC021092FD028091EE029091EF02A091A5
:10087000F002B091F1028093F2029093F302A09300
:10088000F402B093F5020E94BC016093EE027093F3
:10089000EF028093F0029093F1020E94BC016093FA
:1008A000EA027093EB028093EC029093ED020E94B7
:1008B000BC012B013C0184E291E00E94C8014AE0A6
:1008C00061E070E080E090E00E94DA018BE291E06C
:1008D0000E94C8014AE0C301B2010E94DA018DE220
:1008E00091E00E94C8018091EE029091EF02A091E8
:1008F000F002B091F102A3019201281B390B4A0BBF
:100900005B0BCA01B9014AE00E94DA018DE291E075
:100910000E94C8018091EE029091EF02A091F00236
:10092000B091F1024090F2025090F3026090F40214
:100930007090F502BC01CD0164197509860997090B
:100940004AE00E94DA018FE291E00E94C8010E9411
:10095000BC014AE00E94DA0181E391E00E94C801F3
:1009600081E291E00E94C8010E94BC014B015C0140
:100970002B013C0132E0430E511C611C711C0E9492
:10098000BC01681579058A059B0508F092C00E9494
:10099000BC016093EE027093EF028093F00290939B
:1009A000F1020E94BC018BE492E00E94E600892BD8
:1009B000D1F0C0914502D09146028BE492E00E94B2
:1009C000C400FE01EB53FE4F80832196D093460274
:1009D000C0934502E8CF88E391E00E94C80181E21C
:1009E00091E00E94C801C0914502D09146021C16B8
:1009F0001D060CF05BC08091C501823009F048C033
:100A0000C130D10509F452C04091C60150E0509365
:100A1000C4014093C301C417D5070CF447C0FA01C1
:100A2000EC53FE4F8081833099F5D801E32D1D9260
:100A3000EA95E9F721E030E065EC71E083E491E0CC
:100A40000E94600580914502909146022091C30169
:100A50003091C401821B930B909346028093450210
:100A6000C3E4D1E08091440190E09E0123543140E1
:100A7000281739070CF0AFCF699170E080E090E063
:100A80004AE00E94DA0188E391E00E94C801EACFBF
:100A90004FE750E066EC71E085EC91E00E949B0529
:100AA0002197D0934602C09345029DCF0E948D01AD
:100AB00086CE461657066806790608F060CF67CFDF
:100AC000FB01DC012150304030F001900D92041602
:100AD000C9F7CD010895882799270895A1E21A2E14
:100AE000AA1BBB1BFD010DC0AA1FBB1FEE1FFF1FD2
:100AF000A217B307E407F50720F0A21BB30BE40B22
:100B0000F50B661F771F881F991F1A9469F7609568
:100B10007095809590959B01AC01BD01CF01089522
:100B2000EE0FFF1F0590F491E02D099481E090E015
:100B3000F8940C94B6056817790768F4FB01DC019A
:100B4000E40FF51FA40FB51F02C002900E92415092
:100B50005040D8F708950C94AD05FB01DC0102C0AC
:100B600001900D9241505040D8F70895F894FFCF6E
:100B7000000000001E018700B5006B01E600C40004
:100B8000D800564D4450565F317C315F564D44502D
:100B9000560D0A00564D4450455F003A323A007CEB
:0A0BA000005F564D44504500200050
:00000001FF
